:020000040800F2
:10000000D00B002029020008F12F0008A92B0008BE
:10001000052F0008210600086138000800000000D4
:100020000000000000000000000000005530000843
:10003000810A000800000000F32F00085730000874
:10004000430200084302000843020008430200087C
:10005000430200084302000843020008430200086C
:10006000430200084302000843020008430200085C
:100070007D0900084302000843020008430200080B
:10008000430200084302000843020008430200083C
:100090002506000843020008430200084302000846
:1000A000430200084302000843020008430200081C
:1000B0004302000801310008E5320008430200084D
:1000C00043020008430200084302000843020008FC
:1000D0004302000843020008430200084D380008AC
:1000E00043020008430200084302000843020008DC
:1000F00043020008430200084302000843020008CC
:1001000043020008430200084302000843020008BB
:1001100043020008430200084302000843020008AB
:10012000430200084302000843020008430200089B
:10013000430200084302000843020008430200088B
:100140003106000843020008430200084302000889
:10015000430200084302000843020008430200086B
:10016000430200084302000843020008430200085B
:100170004302000843020008430200080000000098
:10018000430200084302000800F002F800F03CF8C7
:100190000AA090E8000C82448344AAF10107DA45E2
:1001A00001D100F031F8AFF2090EBAE80F0013F0F8
:1001B000010F18BFFB1A43F001031847DC4C000085
:1001C000FC4C0000103A24BF78C878C1FAD8520716
:1001D00024BF30C830C144BF04680C6070470000C1
:1001E0000023002400250026103A28BF78C1FBD840
:1001F000520728BF30C148BF0B6070471FB504F0DD
:10020000A5FD1FBD10B510BD00F0E2F81146FFF7C7
:10021000F5FF04F0FBF800F000F903B4FFF7F2FF7C
:1002200003BC00F001F90000094880470948004775
:10023000FEE7FEE7FEE7FEE7FEE7FEE7FEE7FEE796
:10024000FEE7FEE704480549054A064B70470000F3
:10025000F130000889010008D0050020D00B0020F3
:10026000D0070020D007002053EA020C00F069807C
:100270002DE9F04B4FF00006002B1FBFB3FA83F5BA
:1002800003FA05F424FA05F65E4012BF1643B2FAEB
:1002900082F502FA05F4C5F120051EBF22FA05FC1D
:1002A00044EA0C04203556EA044C4FEA144418BFC3
:1002B000641C4FF000084FF00009904271EB030CF2
:1002C00039D3002919BFB1FA81F701FA07F6B0FA5C
:1002D00080F700FA07F6C7F120071EBF20FA07FCD7
:1002E00046EA0C062037B6FBF4FCA7EB0507103FE7
:1002F00007F01F0BCBF120060CFA0BFB2CFA06F6CD
:1003000044BFB3460026202FA4BF5E464FF0000B2B
:100310005BEA060C08BF4FF0010B19EB0B09ABFBB6
:10032000027C48EB0608C01B06FB02CC0BFB03CC8F
:1003300071EB0C01C1E70B46024641464846BDE859
:10034000F08B13B54FF000004FF00001AFF30080C9
:10035000BDE81C4070474FF0000200B513469446BC
:100360009646203922BFA0E80C50A0E80C50B1F10D
:100370002001BFF4F7AF090728BFA0E80C5048BF21
:100380000CC05DF804EB890028BF40F8042B08BFBF
:10039000704748BF20F8022B11F0804F18BF00F8BB
:1003A000012B704770477047704710B500F008F890
:1003B000006810BD10B5044600F002F8046010BDDE
:1003C0000048704770050020004870477005002005
:1003D0007546FFF7F9FFAE4605006946534620F023
:1003E0000700854618B020B5FFF72CFFBDE8204078
:1003F0004FF000064FF000074FF000084FF0000BE1
:1004000021F00701AC46ACE8C009ACE8C009ACE893
:10041000C009ACE8C0098D4670470446AFF30080C0
:100420002046FFF7FAFE000001491820ABBEFEE7A8
:10043000260002007047002801DA404200B27047EF
:1004400000B5DFED582AB6EE001AF6EE000AB0EE5F
:10045000622AF0EE621AB2EE0E0A534803F0A4FAD2
:100460005148B0EE622AF0EE621AB6EE001AF6EECD
:10047000000AB2EE0E0A283003F096FA4A48B0EEAF
:10048000622AF0EE621AB6EE001AF6EE000AB2EE3A
:100490000E0A503003F088FA4348B0EE622AF0EEBC
:1004A000621AB6EE001AF6EE000AB2EE0E0A7830C4
:1004B00003F07AFA3C48B0EE622AF0EE621AB6EE29
:1004C000001AF6EE000AB2EE0E0AA03003F06CFA43
:1004D0003548B0EE622AF0EE621AB6EE001AF6EE79
:1004E000000AB2EE0E0AC83003F05EFA2E48B0EEF3
:1004F000622AF0EE621AB6EE001AF6EE000AB2EECA
:100500000E0AF03003F050FADFED2A2A9FED272A79
:10051000DFED271AB0EE621AF6EE000A9FED260A0A
:10052000264803F041FA9FED263A2448B0EE621ABD
:10053000B0EE432AF0EE431AF0EE620AB0EE0C0A77
:10054000703003F0D9F9DFED1F3A1C48B0EE621AA3
:10055000B0EE632AF0EE631AF0EE620AB0EE000A23
:10056000943003F0C9F91548B0EE432AF0EE431A6F
:10057000B0EE621AF0EE620AB1EE0C0A283003F017
:10058000BBF90E48B0EE632AF0EE631AB0EE621AC1
:10059000F0EE620AB1EE040A4C305DF804EB03F0B1
:1005A000ABB9000000007A460002002000803B4505
:1005B0000000F04200000000CDCC4C3E18030020AB
:1005C00000409C450000164410B5044640890128AF
:1005D00025D1087B18B92088C8800120087320889D
:1005E0008880CB88C01A03B20B81002B01DD981ADA
:1005F00000E0981808804B8000B2FFF71CFF02460D
:10060000B1F90200FFF717FF824201DA088800E023
:100610004888488180B2404260808888C88010BD88
:10062000FEE70000014800F080BD0000EC03002060
:10063000014800F07ABD0000140400202DE9F041CB
:1006400094B000240125CDE906454FF4FC48CDE9DE
:100650000284AE03CDE9006404940E27CDE9085767
:1006600069460A48059400F065FCCDE91045CDE9DE
:100670000A64CDE90C84CDE90E470AA90448129515
:1006800000F058FC14B0BDE8F0810000EC0300203D
:1006900014040020F0B5134CA089404200EB800107
:1006A0001148038882889F189D1AC81B06B20F48FC
:1006B0000D44D21A0A4486812DB2C58312B2394440
:1006C000028609B2A0F84210E38B002B08D0730019
:1006D00083816B005200C38302864900A0F8421058
:1006E000F0BD0000CA0100202C0000200401002001
:1006F0002DE9F04F594D2DED0C8B81B0686804F059
:1007000006F98A4604464AEC100B554890ED009BCA
:1007100051EC100B53EC192B04F024F92E6841EC2A
:10072000180B704204F0F3F8074641EC100B4D48EB
:10073000009190ED00AB51EC100B53EC1A2B04F030
:1007400011F953EC182B04F017FA9FED478B53EC7B
:10075000182B04F007F904F0ABF8454D00B28146C0
:10076000A88144484AEC104B90ED00BB51EC100BB3
:1007700053EC1B2B04F0F6F841EC1D0B304604F053
:10078000C6F88B4606464BEC100B3B4890ED00CB71
:1007900051EC100B53EC1C2B04F0E4F853EC1D2B24
:1007A00003F086FE53EC182B04F0DCF804F080F81C
:1007B00000B24AEC104BE883804653EC1B2B51EC03
:1007C000100B04F0CFF841EC1B0B009953EC1C2BE1
:1007D00041EC107B51EC100B04F0C4F853EC1B2BD4
:1007E00004F0CAF953EC182B04F0BCF804F060F8DC
:1007F00007B24AEC104B2F8653EC192B51EC100B1F
:1008000004F0B0F84BEC106B41EC190B53EC1A2BC5
:1008100051EC100B04F0A6F853EC192B03F048FE32
:1008200053EC182B04F09EF804F042F8134900B280
:10083000A5F84200C98B00290AD04FEA4901A981D5
:100840004FEA4801E983790029864000A5F8420073
:1008500001B0BDEC0C8BBDE8F08F00002C00002037
:100860006000002050000020000000000000004058
:10087000040100206800002058000020CA01002068
:10088000F0B53D4A03265178D478CB08917810888A
:1008900043EA4113890941EA8404C0F30A0011794B
:1008A000A0F5806090FBF6F7C3F30A0344EA8124C5
:1008B000A3F580634D0893FBF6F3517902F1240010
:1008C000C4F30A04878045EAC115C380A4F5806497
:1008D000C5F30A0504EB44030380A5F5806505EB29
:1008E000450343808B098372C1F30111C172118AE0
:1008F000C1F30A01A1F5806101EB41010181D189B8
:10090000818201F00103C382C1F340030383C1F379
:1009100080034383C1F3C0038383C1F30013C38304
:10092000C1F340130384C1F380134384C1F3C013A4
:100930008384C1F30023C384C1F340230385C1F33F
:1009400080234385C1F3C0238385C1F30033C3856E
:10095000C1F340330386C1F380334386C90B8186DC
:10096000D18881811189C18151890182117B817472
:10097000517BC174F0BD0000A6010020014800F0C9
:1009800031BF00001005002001681823CAB2103AD8
:10099000B2FBF3F2054B6FF30901032A9B5CC365BD
:1009A00000D9091D8165084670470000564D0008B2
:1009B00010B5014600208B698A6A4FF0C07453B1AC
:1009C000B3F5005F15D072B1012A0CD0022A0AD00B
:1009D000032A09D104E01AB1012A06D0022A03D160
:1009E000C96AC90100D5012010BDC96AA142FAD067
:1009F00010BD002AF7D0012AF2D0022AF3D0032A30
:100A0000F3D010BD30B50468256825F48025256035
:100A1000046863608368402B036803D099600068B2
:100A2000C26030BD9A600068C16030BD70B51149C8
:100A300011484FF47A72CE8A012E00D102600D8BDC
:100A40000E4B0024012D01D015B103E0036001E03D
:100A500006B904608D8B012D00D14260498B0129BC
:100A600005D0002902D1002D00D1446070BD436043
:100A700070BD0000CA0100202C00002018FCFFFF00
:100A8000704772B6FEE7000010B50B4CA07A012843
:100A900001D100F015F8A07A032804D100F082F902
:100AA000064900200860A07A022803D1BDE8104062
:100AB00000F088B810BD0000CA01002038000020F6
:100AC0002DE9F0413A4C3B4D1E26B4F89A003A4FBE
:100AD000012839D139482146B1F9901002681AB974
:100AE000A4F8A01001220260B5F90400B4F8A02017
:100AF00090FBF6F0101A00B2A4F8A000B0F5005F69
:100B000003DBA0F50050A4F8A000B4F9A000002871
:100B100003DAC0F50050A4F8A00000EE101AB4F9F2
:100B2000A000F8EEC00A00EE100A2548B8EEC00A90
:100B300002F066F897ED600AB1EE400ABDEEC00A19
:100B400010EE100AA4F89C00B4F8880001282CD1FB
:100B5000B5F90600B4F88E1090FBF6F0084400B228
:100B600041F6EA71A4F88E00884203DC41F69C014C
:100B7000884201DAA4F88E1034F97E0F00EE100AD4
:100B8000B4F91000F8EEC00A00EE100A0C48B8EEF6
:100B9000C00A483002F034F897ED720AB1EE400A0C
:100BA000BDEEC00A10EE100AA081BDE8F081000081
:100BB00004010020CA0100200002002038000020AB
:100BC000640300202DE9F041384C394D1E26B4F85D
:100BD0009A00384F012839D137482146B1F9901091
:100BE00002681AB9A4F8A01001220260B5F90C003D
:100BF000B4F8A02090FBF6F0101A00B2A4F8A00000
:100C0000B0F5005F03DBA0F50050A4F8A000B4F934
:100C1000A000002803DAC0F50050A4F8A00000EE00
:100C2000101AB4F9A000F8EEC00A00EE100A23482A
:100C3000B8EEC00A01F0E4FF97ED600AB1EE400A99
:100C4000BDEEC00A10EE100AA4F89C00B5F90E0023
:100C5000B4F88E1090FBF6F0081A00B241F6EA7173
:100C6000A4F88E00884203DC41F69C01884201DA38
:100C7000A4F88E1034F97E0F00EE100AB4F91000BB
:100C8000F8EEC00A00EE100A0C48B8EEC00A483070
:100C900001F0B6FF97ED720AB1EE400ABDEEC00A50
:100CA00010EE100AA081BDE8F081000004010020D0
:100CB000CA01002000020020380000206403002048
:100CC00010B52E482DED048BB0F99000A0F6EB5036
:100CD00003F01DFE9FED2B1B294C53EC112B03F051
:100CE00041FE9FED2A1B53EC112B03F03BFE41EC20
:100CF000190B9FED280B84ED029B53EC102B03F096
:100D00003BFF9FED268BC4E9040153EC182B51ECFB
:100D1000190B03F027FE41EC100B02F0D9FE84ED15
:100D2000080B94ED020B53EC182B51EC100B03F055
:100D300019FE41EC100B02F067FE84ED060B94EDFA
:100D4000040B53EC182B51EC100B03F00BFE41EC91
:100D5000100B02F0BDFE84ED0C0B94ED040B53EC74
:100D6000182B51EC100B03F0FDFD41EC100B02F0C1
:100D70004BFE84ED0A0BBDEC048B10BD040100207A
:100D800038000020000000000080764000000000D5
:100D90000000203F0000000000805640449D52A209
:100DA00046DF913F70B5234CB4F990008E3400EECD
:100DB000100A2248F8EEC00A9FED1F0A01F020FF3A
:100DC0001F4D1E2195ED600AB1EE400ABDEEC00A2E
:100DD00010EE100AE0811B48B0F90E0090FBF1F014
:100DE0002188081A00B241F6EA7124F88E09884277
:100DF00003DC41F69C01884201DAA4F88E1034F934
:100E00007E0F00EE100AB4F91000F8EEC00A00EEF2
:100E1000100A0A48B8EEC00A483001F0F1FE95ED1C
:100E2000720AB1EE400ABDEEC00A10EE100AA081AF
:100E300070BD00000401002000588F4564030020AD
:100E400000020020CA01002090F82020012A07D0CB
:100E5000022A05D0416A41F4802141620120704795
:100E6000006842690A43426100207047F0B590F87B
:100E700020500468A468012D05D0022D03D0416ADA
:100E800041F4802153E014F0406F01D1E5004BD5CF
:100E9000C4F30164022C03D9416A41F4000146E025
:100EA0000125A5401D608D684FF4C0739DB1CE68CB
:100EB00035434E6845EAC605066803EB0417F5514D
:100EC0004FF4C275076805EB04150E697E51097D64
:100ED000012905D009E00E88CD6845EA4655EBE7C3
:100EE00001684E5946F480764E511179D2F805507A
:100EF0004FF4C67641EA0525016806EB04168D51CC
:100F00001178D2F801204FF4C47541EA0221026839
:100F100005EB04155151006803EB0411425842F0EF
:100F2000010242500020F0BD416A41F400114162CB
:100F30000120F0BD10B590F82020012A07D0022A28
:100F400005D0416A41F480214162012010BD3B4837
:100F5000D0F8002242F00102C0F80022D0F80022AE
:100F600022F47C52C0F80022D0F800224B6A42EAF8
:100F70000322C0F800220A7D02F01F0301229A40DA
:100F8000D0F81C329343C0F81C32CB69B3B9D0F807
:100F90000C329343C0F80C328C894B6864F31F43C6
:100FA0004C6900EBC404C4F840320C890B6864F34C
:100FB0001F434C6900EBC404C4F84432CB69012BD5
:100FC00016D1D0F80C321343C0F80C320C884B68A1
:100FD00064F31F434C6900EBC404C4F840320C892D
:100FE000CB6864F31F434C6900EBC404C4F844327B
:100FF0008B69002BD0F804320ED01343C0F80432B2
:101000000B69002BD0F8143208D01343C0F8143207
:10101000096A012904D008E09343EFE79343F5E719
:10102000D0F81C121143C0F81C12D0F8001221F0A5
:101030000101C0F80012002010BD00000064004053
:10104000704730B590F82040012C05D0022C03D019
:10105000416A41F480215DE00468002955D024698B
:10106000A40754D04FF4D874056804EB01142D592B
:1010700015F00405956005682D594ED0ED085560B2
:1010800005682C5904F00204D4604FF4DA74056842
:1010900004EB01142D5905F00F05156105682D5954
:1010A000C5F30725956105682C59240C54614FF44C
:1010B000DC72046802EB0112A4581C700468A45886
:1010C000240A5C700468A458240C9C700468A2581C
:1010D000120EDA704FF4DE72046802EB0112A458AB
:1010E0001C710468A458240A5C710468A458240C78
:1010F0009C710468A258120EDA71006881B101690E
:1011000041F020010161002030BDE468A8E7416A98
:1011100041F400114162012030BD6D0D1560AFE753
:10112000C16841F02001C160EDE72DE9F05F05469F
:10113000006800244669D0F804908768D0F80CB0A5
:10114000D0F810A0D0F81880F10748D0F90714D0D3
:1011500001218160B80703D5284600F0E2FA0CE0CF
:10116000780702D54FF4006407E0380702D54FF442
:10117000805402E0284600F0D3FAF80516D5296815
:101180004FF480708860B80503D5284600F0CBFA8C
:101190000CE0780502D544F4005407E0380502D588
:1011A00044F4804402E0284600F0BCFAF80316D567
:1011B00029684FF480308860B80303D5284600F0D2
:1011C000B4FA0CE0780302D544F4004407E0380395
:1011D00002D544F4803402E0284600F0A5FA300736
:1011E00007D55FEACB6004D52968102044F4007469
:1011F000C86070074FF0080707D55FEA0B7004D589
:101200002868C760284600F099F9B00706D5286815
:10121000C068800702D0284600F092F9700607D512
:101220005FEACA6004D52968102044F4806408612C
:10123000B00607D55FEA0A7004D52868076128461A
:1012400000F03EFAF00606D528680069800702D053
:10125000284600F036FAB00308D55FEAC96005D524
:10126000296810204860284600F02CFAF00307D5C2
:101270005FEA097004D528684760284600F056FAEE
:10128000300446D55FEA497040D5F00504D55FEAE1
:10129000C87001D044F00104B00504D55FEA88703D
:1012A00001D544F00204700504D55FEA487001D509
:1012B00044F00404300529D518F0700F26D008F04A
:1012C0007000402815D006DC102809D020280AD04C
:1012D000302816D10AE050280ED0602811D10EE037
:1012E00044F008040DE044F010040AE044F0200447
:1012F00007E044F0400404E044F0800401E044F4DA
:1013000080742868816921F0700181612968042056
:101310004860002C05D0686A204368622846FFF7C1
:101320008FFEBDE8F09F70B5040003D094F8200054
:1013300010B104E0012070BD204600F081F8206863
:10134000016841F00101016000F0B6FC0546052688
:1013500004E000F0B1FC401B0A2811D82068406866
:10136000C007F6D02068016821F00201016000F09A
:10137000A3FC05460BE000F09FFC401B0A2806D9A1
:10138000606A40F40030606284F82060D2E7206830
:1013900040688007EFD4207E0128206801683DD096
:1013A00021F080010160607E01282068016838D04A
:1013B00021F040010160A07E01282068016833D03F
:1013C00021F020010160E07E0128206801682ED014
:1013D00041F010010160207F01282068016829D0B8
:1013E00021F008010160607F01282068016824D095
:1013F00021F004010160D4E902010843D4E9041298
:10140000114308436168491E08432168C8610020F0
:101410006062012084F82000002070BD41F080014E
:10142000C0E741F04001C5E741F02001CAE721F0E3
:101430001001CFE741F00801D4E741F00401D9E7FA
:10144000F0B587B0044614216846FEF784FF364B9A
:101450003648DFF8D0E01968D4F800C0334A0325D5
:101460000226092710300024491CF44522D11960B6
:10147000012907D1016841F000710160006800F0A6
:1014800000700590106840F0080010601068CDE909
:10149000005600F00800CDE9047069462448CDE903
:1014A000024500F011FB00221146142000F072FCEE
:1014B000142032E0DFF87CE0F44530D1D0F800C0F1
:1014C0004CF0806CC0F800C0D0F800C001290CF0CE
:1014D000806CCDF814C0196007D1016841F000712B
:1014E0000160006800F000700590106840F0020094
:1014F0001060106802AB00F0020005906020CDE99A
:10150000000683E8B00069460B4800F0DDFA0022CF
:101510001146402000F03EFC402000F02DFC07B0BA
:10152000F0BD000000640040700000203038024030
:10153000000C0240006800400004024070470000B8
:101540002DE9F0415A4E01275A4C0546B0426AD166
:10155000594BA4F1380200213046FFF772FDA4F187
:10156000380001685448A1F20121082951D2DFE86E
:1015700001F004101C2834505044018849BA2180DD
:10158000418849BA6180818849BAA1808079E08028
:101590003FE0018849BA6182418849BAA1828188C5
:1015A00049BAE1828079208333E0018849BAA18475
:1015B000418849BAE184818849BA2185807960856A
:1015C00027E0018849BAE186418849BA21878188A4
:1015D00049BA61878079A0871BE0018849BAA4F8DD
:1015E0004810418849BAA4F84A10818849BAA4F839
:1015F0004C108079A4F84E000BE0008840BA00B28D
:10160000A4F89000B4F89A1009B9A4F8A000A4F8BE
:101610009A7002212648FFF717FC20B13068416913
:1016200041F002014161254EB54233D1224B214A9E
:1016300008331C3A00213046FFF703FD1D481C38D3
:1016400001681D48A1F500710830063904D0012950
:1016500007D003291ED111E0018849BA24F85A1F86
:1016600003E0018849BA24F86C1F418849BA6180B7
:10167000818849BAA1808079E0800BE0008840BA77
:1016800000B2A4F87E00B4F8881009B9A4F88E005E
:10169000A4F8887002210948FFF7D6FB002804D07F
:1016A0003068416941F002014161BDE8F08100000C
:1016B000EC03002004010020180000201404002086
:1016C000704770477047000070B5044690F82000DE
:1016D000012804D0606A40F40020606218E0022013
:1016E00084F820002068016821F00101016000F009
:1016F000E3FA05460EE000BF00F0DEFA401B0A28C0
:1017000008D9606A40F400306062052084F8200047
:10171000012070BD20684068C007EDD1606270BDD7
:1017200070477047704770477047704770472DE9A2
:10173000F0410446876D00F0BFFA064694F8350084
:101740000025022806D08020606584F834500120EE
:10175000BDE8F0812068016821F016010160206871
:10176000416921F080014161206C08B9A06C20B171
:101770002068016821F0080101602068016821F0FB
:10178000010101600CE000F097FA801B052807D9E1
:1017900020206065032084F8350084F83450D7E7B2
:1017A00020680068C007EED194F85C103F208840A4
:1017B000B860012084F8350084F834500020C7E771
:1017C00090F83510022903D080214165012070472F
:1017D000052180F835100068016821F001010160E1
:1017E000002070472DE9F84304464FF00009CDF87A
:1017F000009063484FF41651A56D0068B0FBF1F7F7
:101800002E6894F85C10082000FA01F131420FD0E4
:1018100021680A6852070BD50A6822F004020A60A0
:1018200094F85C108840A860606D40F0010060652D
:1018300094F85C104FF0010808FA01F0304208D02B
:1018400021684969090604D5A860606D40F002006E
:10185000606594F85C1004208840304208D021680C
:101860000968890704D5A860606D40F004006065D0
:1018700094F85C1010208840304218D02168096824
:10188000090714D5A86020680168490304D50068D9
:10189000000308D5A16C07E00168C90503D40168FD
:1018A00021F008010160216C09B12046884794F8B5
:1018B0005C1020208840304231D021680968C90678
:1018C0002DD5A86094F8350005282068016806D059
:1018D000490347D5006800031DD4616C1CE021F06A
:1018E000160101602068416921F080014161206C8E
:1018F00008B9A06C20B12068016821F008010160DE
:1019000094F85C103F208840A86084F8358084F803
:101910003490216D1FE0E16B09B120468847606D6E
:1019200000282BD0606DC00714D0052084F8350046
:101930002068016821F0010101600098401C0090BE
:10194000B84203D820680068C007F6D184F8358013
:1019500084F83490E16C002910D001B02046BDE835
:10196000F04308470168C905D5D4016821F010018A
:10197000016084F8358084F83490CCE7BDE8F883C2
:10198000800000202DE9F041044600F095F906465C
:101990005CB1022084F83500002584F834502068BA
:1019A000016821F0010101600DE00120BDE8F08136
:1019B00000F082F9801B052805D9202060650320EE
:1019C00084F83500F2E720680068C007F0D122688B
:1019D000116820480140D4E901031843D4E90336D3
:1019E0003343184363691843A3691843E3691843F1
:1019F000236A18430843616A042903D1D4E90B130D
:101A000019430843106020684069666A20F00701A6
:101A100030460E43012704280CD1A06A0643E06A31
:101A200040B12046FEF7C4FF20B14020606584F835
:101A30003570BAE7206846612046FEF7A5FF94F8A6
:101A40005C203F2191408160656584F835700020FD
:101A5000ACE700003F8010F02DE9F0410446866DB0
:101A600090F83400002501280DD0012084F83400BE
:101A700094F835700020012F07D084F83400022537
:101A80002846BDE8F0810220FBE7022784F8357084
:101A900060652046FEF7B6FF94F85C103F20884052
:101AA000B0602068016841F016010160206C20B12F
:101AB0002068016841F0080101602068016841F078
:101AC00001010160DCE700002DE9F84FDFF8BCA15F
:101AD0000022012503264FF00F090AF1040BAAF199
:101AE000040E00BF0B6805FA02F42340A34270D134
:101AF0000F7907F00307012F01D0022F16D1876855
:101B00004FEA420806FA08FC27EA0C07D1F80CC095
:101B10000CFA08FC4CEA070CC0F808C04768A74359
:101B20000C79C4F3001494403C4344600C79E443C2
:101B3000A4070AD0C4684FEA420C06FA0CF7BC436B
:101B40008F6807FA0CF72743C7600C7904F0030489
:101B5000022C12D1D40800EB840CDCF8204057078B
:101B6000FF0E09FA07F824EA0804D1F8108008FAF1
:101B700007F848EA0408CCF8208004684FEA420CD1
:101B800006FA0CF7BC430F7907F0030707FA0CF7C6
:101B9000274307604C6814F4403F70D03C4C2768E2
:101BA00047F480472760246822F0030704F4804448
:101BB0000094384C07EB040CDCF8084897074FEA10
:101BC000177809FA08F7BC43334FB84202D100270F
:101BD00024E054E0314FB84201D101271EE0304FDC
:101BE000B84201D1022719E02E4FB84201D1032794
:101BF00014E02D4FB84201D104270FE02B4FB8421B
:101C000001D105270AE02A4FB84201D1062705E095
:101C1000284FB84201D1072700E0082707FA08F744
:101C20002743CCF80878DAF800405746D1F804C0CA
:101C30009C435FEACC2C00D51C433C60DBF80040A1
:101C40005F46D1F804C09C435FEA8C2C00D51C434E
:101C50003C60DEF800407746D1F804C09C435FEA60
:101C60008C3C00D51C433C60084F083F3C68D1F8D1
:101C700004C09C435FEACC3C00D51C433C60521C32
:101C8000102AFFF42FAFBDE8F88F0000083C014098
:101C9000443802400030014000000240000402408D
:101CA00000080240000C02400010024000140240F4
:101CB00000180240001C0240014880687047000084
:101CC00074000020024881680278114481607047E6
:101CD000740000200B4810B5016841F400710160E8
:101CE000016841F480610160016841F48071016024
:101CF000032000F06FF80F2000F006F800F024F841
:101D0000002010BD003C024070B50D4D04464FF45C
:101D10007A712878B1FBF0F00A490968B1FBF0F05C
:101D200000F00CFB48B9102C07D200222146501EAF
:101D300000F030F800206C6070BD012070BD000024
:101D400074000020800000200A4808B5016841F4B2
:101D500080410160006800F4804000900548001F49
:101D6000016841F080510160006800F080500090EF
:101D700008BD000044380240002809DB00F01F02C3
:101D8000012191404009800000F1E020C0F80011DD
:101D900070470000F0B40E4B1B680C46C3F30223DF
:101DA000C3F10705042D00D90425191D072901D207
:101DB000002300E0DB1E012606FA05F1491E214042
:101DC00099409E40761E16403143F0BC01F00BBE98
:101DD0000CED00E0064900F0070208684FF6FF032B
:101DE000184040EA0220034A104308607047000090
:101DF0000CED00E00000FA052DE9F0470E46050065
:101E000065D0DFF81481D8F80000F7B200F00700C1
:101E1000B04207D288F80070D8F8000000F0070040
:101E2000B04254D128683D4C810712D5400703D5F4
:101E3000206840F4E05020602878000703D520682F
:101E400040F4604020602068A96820F0F00008435A
:101E500020602878C0072DD03049686808390128EB
:101E600012D0022813D0032811D00968890700294D
:101E70002DDA216821F0030101432160FFF71CFFE7
:101E8000814641F2883A0EE009688903EFE7096864
:101E90008901ECE7FFF710FFA0EB0901514502D9DA
:101EA0000320BDE8F0872068696800F00C00B0EB03
:101EB000810FEFD1D8F80010404601F00701B14280
:101EC00007D90770006800F00700B04201D0012078
:101ED000E7E72878400705D52068E96820F4E05056
:101EE000084320602878000706D52068296920F477
:101EF000604040EAC100206000F038F82168084ADC
:101F0000C1F30311515CC8400649086006480068E7
:101F1000FFF7FAFE0020C4E7003C02400838024008
:101F20005E4D00088000002078000020044805492C
:101F300000680968044AC1F38221515CC8407047B7
:101F400080000020083802406E4D00080448054912
:101F500000680968044AC1F34231515CC8407047C7
:101F600080000020083802406E4D0008154810B56A
:101F7000006810F00C02144813D01449042A0FD042
:101F8000082A0ED10F4C241F2268236802F03F025A
:101F90005B0207D52068C0F38810A0FB010106E0B2
:101FA000084610BD2168C1F38811A1FB0001002380
:101FB000FEF75AF92168C1F30141491C4900B0FB01
:101FC000F1F010BD083802400024F400001BB700F7
:101FD0002DE9F84F04006ED02078DFF84C93C0074D
:101FE000A9F104054AD009F104000168C1F3810197
:101FF000012908D00068C0F3810002280AD1D9F86D
:102000000000400206D52868800337D560680028A4
:10201000E1D033E06068B0F5803F10D0B0F5A02F7C
:10202000286810D020F480302860286820F48020B0
:1020300028606068A8B1FFF73FFE06460DE02868FB
:1020400040F48030F4E740F480202860F7E700BFD8
:10205000FFF732FE801B642873D828688003F7D509
:102060000CE0FFF729FE064605E000BFFFF724FE5F
:10207000801B6428F0D828688003F7D42078DFF824
:10208000AC8280074FF0000A3ED5A748001D0168CA
:1020900011F00C0F08D00068C0F3810002280BD1AA
:1020A000D9F80000400207D42868800716D5E068F8
:1020B000012800D112E033E1E068B8B10120C8F88E
:1020C0000000FFF7F9FD064605E000BFFFF7F4FD4D
:1020D000801B0228C0D828688007F7D528682169A6
:1020E00020F0F80040EAC10028600DE0C8F800A028
:1020F000FFF7E2FD064604E0FFF7DEFD801B022845
:102100001FD828688007F7D42078000722D5864F8B
:1021100087486169703771B101210160FFF7CCFD1B
:10212000064604E0FFF7C8FD801B022809D838687E
:102130008007F7D50EE0C0F800A0FFF7BDFD06460A
:1021400005E082E0FFF7B8FD801B02287DD83868E3
:102150008007F7D42078400768D5DFF8CCB1002796
:102160000BF13C0BDBF80000C0000BD4DBF80010D7
:1021700041F08051CBF80010DBF80000012700F09F
:10218000805000906B4E3068C00510D4306840F429
:1021900080703060FFF790FD009005E0FFF78CFD48
:1021A0000099401A022850D83068C005F6D55E4E16
:1021B000A0686C3601280FD00528306810D020F0B8
:1021C00001003060306820F004003060A068B8B1D1
:1021D000FFF772FD00900FE0306840F00100F4E777
:1021E00040F004003060F7E7FFF766FD0099411A00
:1021F00041F28830814266D830688007F4D50EE01D
:10220000FFF75AFD009007E0FFF756FD0099411ACD
:1022100041F28830814256D830688007F4D42FB11B
:10222000DBF8001021F08051CBF80010A069C8B392
:102230003D49091D0968C1F3810102294AD00228DC
:10224000504607D0C8F8600000E03CE0FFF734FDDE
:1022500004463BE04746C8F86000FFF72DFD064600
:1022600005E000BFFFF728FD801B02282BD8286857
:102270008001F7D4D4E907010843A16A2E4A49082E
:1022800002EB0141626A41EA8211084394F82C1082
:1022900040EA0161C9F8001001203866FFF70CFD23
:1022A000044606E03EE000BFFFF706FD001B0228E3
:1022B00009D828688001F7D534E000BFFFF7FCFC9F
:1022C000001B022802D90320BDE8F88F286880018E
:1022D000F4D427E00128F7D0D9F80000E26900F42F
:1022E000800191421CD1226A00F03F01914217D136
:1022F00047F6C071626A0140B1EB821F10D1A26A39
:102300004FF0FF3300F4403103EB5202B1EB024FC8
:1023100006D194F82C1000F07060B0EB016F01D082
:102320000120D1E70020CFE70438024000004742F7
:10233000800E4742007000400000FFFF10B5401EB5
:10234000B0F1807F01D3012010BD4FF0E024606127
:102350000F21601701F047FB0020A06107202061DA
:10236000002010BD7047704770B590F83C20012ADE
:1023700032D0012480F83C40022280F83D200368DE
:102380005A689D6822F070060A6832435A60134BFF
:1023900002689A4214D0B2F1804F11D0104B9A4289
:1023A0000ED0104B9A420BD00F4B9A4208D00F4BD5
:1023B0009A4205D00E4B9A4202D00E4B9A4204D15B
:1023C000496825F080031943916080F83D40002161
:1023D00080F83C10084670BD022070BD000001402E
:1023E0000004004000080040000C004000040140D0
:1023F000004001400018004010B5040003D094F8DC
:102400003D0010B107E0012010BD002084F83C0021
:10241000204600F01FF8022084F83D00211D2068AE
:1024200000F07AFF012084F8460084F83E0084F82A
:102430003F0084F8400084F8410084F8420084F8AA
:10244000430084F8440084F8450084F83D000020EF
:1024500010BD000008B5154A0168154891420ED11B
:10246000016841F0020101600068002200F00200F2
:1024700000900E211D20FFF78DFC1D2010E00D4A5D
:10248000914211D1016841F004010160006800220D
:1024900000F00400009011461E20FFF77BFC1E2078
:1024A000BDE80840FFF768BC08BD0000000400401C
:1024B000403802400008004090F83D10012901D04A
:1024C00001207047022180F83D100168CA6842F07F
:1024D0000102CA6000681149884214D0B0F1804FEF
:1024E00011D00F4988420ED00E4988420BD00E49B8
:1024F000884208D00D49884205D00D49884202D053
:102500000C49884204D1816801F00701062903D0F3
:10251000016841F0010101600020704700000140A6
:102520000004004000080040000C0040000401408E
:10253000004001400018004070B5044690F83C008F
:102540000025012817D0012684F83C60022084F879
:102550003D002068826822F0770222F47F42826088
:102560000868502838D00DDC20284FD005DC90B307
:10257000102811D14AE0022070BD302846D04028F2
:102580000AD13BE060282FD070280DD0B0F5805FD5
:1025900003D0B0F5005F12D0012584F83D60002023
:1025A00084F83C00284670BDCB68D1E90121206841
:1025B00000F016FF2068816841F0770109E0CB68E0
:1025C000D1E90121206800F00BFF2068816841F407
:1025D00080418160E1E719E0CA684968206800F03D
:1025E00011FF5021206806E0CA684968206800F0A1
:1025F0001AFF6021206800F0FDFECEE7CA68496836
:10260000206800F0FFFE40212068F4E722680146C0
:102610001046F0E7704770B50446006801694FF056
:102620000005C943890715D4C168C943890711D476
:10263000E91E01610120207720688069800720461B
:1026400002D0FFF7E7FF04E000F098F8204600F022
:1026500096F8257720680169C943490717D4C168EE
:10266000C943490713D46FF00401016102202077A8
:102670002068806910F4407F204602D0FFF7CAFF2F
:1026800004E000F07BF8204600F079F82577206818
:102690000169C943090716D4C168C943090712D49F
:1026A0006FF008010161042020772068C06980076D
:1026B000204602D0FFF7AEFF04E000F05FF82046AE
:1026C00000F05DF8257720680169C943C90617D471
:1026D000C168C943C90613D46FF010010161082015
:1026E00020772068C06910F4407F204602D0FFF7B1
:1026F00091FF04E000F042F8204600F040F8257712
:1027000020680169C943C90708D1C168C943C9071D
:1027100004D1891E0161204600F032F82068016969
:10272000C943090609D4C168C943090605D46FF035
:10273000800101612046FFF715FE20680169C94349
:10274000490609D4C168C943490605D46FF0400160
:102750000161204600F015F820680169C943890627
:102760000BD4C168C943890607D46FF02001016109
:102770002046BDE87040FFF7F6BD70BD704770475A
:1027800070477047704710B504460068406994F878
:102790003D10C0F3C010212911D180B12068143040
:1027A00050E8001F21F0800140E80012002AF5D116
:1027B000606B08B1FEF7BBFF204600F009FF206800
:1027C000406994F83E10C0F38010222911D180B1E5
:1027D0002068143050E8001F21F0400140E800124A
:1027E000002AF5D1A06B08B1FEF7A1FF204600F04A
:1027F000C8FE002010BD7047F8B50168044608689F
:10280000CA684B6910F00F0F4FF000055AD003F063
:10281000010602F49077374365D0C10705D0D10592
:1028200003D5216C41F001012164410705D5D90789
:1028300003D0216C41F002012164810705D5D9073D
:1028400003D0216C41F004012164010707D502F097
:102850002001314303D0216C41F008012164216C37
:1028600000293BD0800604D5900602D5204600F012
:10287000BDFE20684069216CC0F3801001F00801A2
:10288000014320462BD000F07CFE206840694006C2
:1028900021D52068143050E8001F21F0400140E8A5
:1028A0000012002AF5D1A06BA8B16C490165A06B9C
:1028B000FEF786FF002811D0A06B016D01B0BDE8C6
:1028C000F040084783060ED593060CD52046BDE898
:1028D000F84000F08BBE2046FFF78DFFF8BDFFF7F4
:1028E0008AFF2564F8BD266B2023012E79D1C60608
:1028F00077D5D60675D508684868009048694006BF
:1029000040D5A16B086840680004000CEAD0A28D95
:102910008242E7D9E085C869B0F5807F2DD0206874
:102920000C3050E8001F21F4807140E80012002AAA
:10293000F5D12068143050E8001F21F0010140E873
:102940000012002AF5D12068143050E8001F21F051
:10295000400140E80012002AF5D184F83E3025639A
:1029600020680C3050E8001F21F0100140E80012F0
:10297000002AF5D1A06BFEF7DAFEA08DE18D401A9A
:1029800081B229E0A08DE18D401A81B2E08D00284E
:10299000A8D00029A6D020680C3050E8002F22F4DF
:1029A000907240E80026002EF5D12068143050E8DF
:1029B000002F22F0010240E80026002EF5D184F815
:1029C0003E30256320680C3050E8002F22F01002C2
:1029D00040E80023002BF5D12046FFF7D3FEF8BDD9
:1029E000FFE705062BD5150629D594F83D002128CB
:1029F000F5D1A068B0F5805F01D12069B0B1206A3F
:102A0000411C2162216800784860E08C401E00046F
:102A1000000CE084E3D12068C16821F08001C1602E
:102A20002068C16841F04001C160D8E7206A008891
:102A3000C0F308004860206A801C2062E5E7400679
:102A4000CDD55006CBD5CA68204622F04002CA60D8
:102A500084F83D3000F0A7F8C1E700008D3400088D
:102A600070B5040004D094F83D00002510B106E0D4
:102A7000012070BD84F83C50204600F023F824204B
:102A800084F83D002068C16821F40051C1602046EF
:102A900000F00CFE2068016921F49041016120687A
:102AA000416921F02A0141612068C16841F4005167
:102AB000C1602564202084F83D0084F83E00002099
:102AC00070BD000070B586B0064614216846FDF75B
:102AD00042FC24493068884241D1234800250168DE
:102AE00041F480210160006800F4802005901E48B8
:102AF0001038016841F0040101600068694600F087
:102B0000040005904FF4406000900220CDE90105DB
:102B100003200390072004901448FEF7D5FF154CBE
:102B2000134820604FF00060C4E901054014C4E977
:102B3000035080106561C4E9065025622046656235
:102B4000FEF720FF08B1FDF79CFFB4630022114699
:102B50002720A663FFF71EF92720FFF70DF906B01F
:102B600070BD0000004800404038024000080240AC
:102B7000286002401005002090F83E30202B0ED136
:102B800059B152B190F83C30012B08D0012380F8A4
:102B90003C300023036300F00FBE01207047022089
:102BA0007047704770477047FEE70000104808B54F
:102BB00000680168C943C90618D4016840680090DC
:102BC0000B48FFF7E0FD0B4800684068C0F12400A7
:102BD000122804D1084901200860FDF751FEBDE824
:102BE0000840242205490248FFF7C6BF08BD00007F
:102BF000CC0400201005002028000020A6010020A1
:102C000030EE601AD0ED031A9FED342A11EE101A3F
:102C1000C0ED041A80ED031AB1F18B4F03DD31EEE4
:102C2000421A80ED031A11EE101A11F16A5F05D9EC
:102C300030EE020A30EE600A80ED030A284AC168CD
:102C4000914206DA11F17F5F03D29FED260A80EDF3
:102C5000030A90ED031AD0ED020A31EE610A60EE2C
:102C6000200A90ED000A41EE000AC0ED070A90ED3F
:102C7000050AD0ED011A01EE210A80ED050A90ED5A
:102C8000061AF1EE411AB4EEE10AF1EE10FA02D2A0
:102C9000B0EE610A06E0B4EEC10AF1EE10FA01DB13
:102CA000B0EE410A80ED050A30EE800A80ED070A99
:102CB000D0ED080AB1EE601AB4EEC10AF1EE10FAD6
:102CC00002D2B0EE410A06E0B4EEE00AF1EE10FAEC
:102CD00001DBB0EE600A80ED070A70470000004695
:102CE0000000404000000000104810B50E4901608F
:102CF0000321416000214FF480228160C0E903126A
:102D00004FF4E00242610176012242768176C1767B
:102D100002774177FEF707FB002803D0BDE810409B
:102D2000FDF7AFBE10BD000000640040EC030020C2
:102D3000104810B50E4901600321416000214FF495
:102D400080228160C0E903124FF4E0024261017603
:102D5000012242768176C17602774177FEF7E3FA67
:102D6000002803D0BDE81040FDF78BBE10BD000069
:102D70000068004014040020094808B5016841F4C7
:102D8000001101600068002200F40010009011465C
:102D90000C20FEF7FFFFBDE808400C20FEF7ECBF5B
:102DA00030380240114808B5016841F00201016065
:102DB000016801F002010091016841F00801016021
:102DC000016801F008010091016841F0040101600F
:102DD000016801F004010091016841F08001016087
:102DE000006800F08000009008BD0000303802400C
:102DF00010B586B0002417480094019402940394FF
:102E000004941349059401605321C0E9011440F270
:102E1000CF71C0E903148461FFF7EEFA08B1FDF742
:102E200030FE4FF48050009069460A48FFF784FB5B
:102E300008B1FDF726FE049404A906480594FFF79F
:102E400093FA002801D0FDF71CFE06B010BD00006B
:102E5000000400403C04002010B586B00024174850
:102E6000009401940294039404941349059401601E
:102E700040F24731C0E9011441F28731C0E903143F
:102E80008461FFF7B9FA08B1FDF7FBFD4FF48050FC
:102E9000009069460948FFF74FFB08B1FDF7F1FDC7
:102EA000049404A905480594FFF75EFA002801D0B0
:102EB000FDF7E7FD06B010BD0008004084040020C7
:102EC0000E4810B50C4901600D4941604FF4805126
:102ED000816000214FF48062C0E903120C22C0E936
:102EE0000521C161FFF7BCFD002803D0BDE81040FB
:102EF000FDF7C7BD10BD000000480040CC04002015
:102F0000A0860100FEE7000030B40A4C050A2570D7
:102F10006070080AA070E170100A20716271180ACE
:102F2000A071E371224630BC002303490348FDF73A
:102F30009DBF000000000020B4000020EC03002032
:102F400070B50D4C050A25706070080AA070E1701C
:102F5000100A20716271180AA071E37100232246E1
:102F600006490748FDF782FF2246BDE8704000236E
:102F700002490448FDF77ABF080000209C000020A9
:102F8000EC0300201404002030B40A4C050A25701C
:102F90006070080AA070E170100A20716271180A4E
:102FA000A071E371224630BC002303490348FDF7BA
:102FB0005DBF0000100000208400002014040020E9
:102FC00010B5FDF73BFB00F041FA00F027F800F0E8
:102FD00033F802210448FDF737FFBDE81040022115
:102FE0000248FDF731BF0000EC030020140400206C
:102FF000FEE77047074882B00068016841680091A9
:10300000C16841F01001C16024220349014802B0A7
:10301000FFF7B2BDCC040020A60100200548012125
:103020000160002141608160C16001614161816195
:1030300070470000CC0000200548012101600021FC
:1030400041608160C1600161416181617047000040
:10305000E80000207047FEF735BE000030B593B0A1
:1030600030216846FDF777F914210CA8FDF773F9B4
:103070001D480025016841F080510160006800F0A2
:10308000805011901948016841F480410160006846
:10309000022400F48040119001200090000401906F
:1030A0008001CDE9064006200890A820CDE909045A
:1030B00004200B906846FEF78BFF08B172B6FEE75E
:1030C0000CA90F2081E831004FF4A0500F904FF46D
:1030D0008050109005210CA8FEF78EFE002801D02C
:1030E00072B6FEE713B030BD4038024000700040B9
:1030F0000248016841F470010160704788ED00E00A
:1031000070B57448FFF787FA01F05AF9FDF7BCFC77
:10311000FDF7D6FD704CB4F9020000EE100AB4F9C8
:103120000C00F8EEC00A00EE100A6C48B8EEC00AB7
:1031300000F0E9FBB4F9140000EE100AB4F91E0027
:10314000F8EEC00A00EE100A6448B8EEC00A283053
:1031500000F0D9FBB4F9260000EE100AB4F93000F3
:10316000F8EEC00A00EE100A5C48B8EEC00A503013
:1031700000F0C9FBB4F9380000EE100AB4F94200BF
:10318000F8EEC00A00EE100A5448B8EEC00A7830D3
:1031900000F0B9FBB4F94A0000EE100AB4F954008B
:1031A000F8EEC00A00EE100A4C48B8EEC00AA03093
:1031B00000F0A9FBB4F95C0000EE100AB4F9660057
:1031C000F8EEC00A00EE100A4448B8EEC00AC83053
:1031D00000F099FBB4F96E0000EE100AB4F9780023
:1031E000F8EEC00A00EE100A3C48B8EEC00AF03013
:1031F00000F089FBB4F992000A2590FBF5F000EE8F
:10320000100AB4F99C00F8EEC00A00EE100A344827
:10321000B8EEC00A00F025FBB4F9800090FBF5F091
:1032200000EE100AB4F98A00F8EEC00A00EE100AA7
:103230002B48B8EEC00A483000F013FB274C00239F
:103240001A4694ED690A1946BDEEC00A10EE100A3E
:1032500000B2FFF799FE94ED570ABDEEC00A10EEDA
:10326000100A94ED440A03B2BDEEC00A10EE100A33
:1032700094ED3A0A02B2BDEEC00A10EE100A94EDC7
:10328000300A01B2BDEEC00A10EE100A00B2FFF71C
:1032900057FE94ED260ABDEEC00A10EE100A94ED1A
:1032A0001C0A03B2BDEEC00A10EE100A94ED120A19
:1032B00002B2BDEEC00A10EE100A94ED080ABDE895
:1032C0007040BDEEC00A01B210EE100A00B2FFF766
:1032D0001BBE00003C04002004010020000200206E
:1032E0004003002010B50948FFF795F94FF400544A
:1032F000224607490748FDF767F905492246054870
:103300000E31BDE810401238FDF75EB9840400208C
:10331000D003002094010020F0B50268254C264D12
:10332000264E274F274B4FF0804CA04209D06045D6
:1033300007D0A84205D0B04203D0B84201D098428D
:1033400004D122F0700E4A6842EA0E02A0421BD05D
:10335000604519D0A84217D0B04215D0B84213D05A
:10336000984211D0184DA8420ED0184DA8420BD04B
:10337000174DA84208D0174DA84205D0164DA842B7
:1033800002D0164DA84203D122F44075CA682A43E0
:103390004D6922F080022A4302608A68C2620A688C
:1033A0008262A04201D0984201D1096901630121E2
:1033B0004161F0BD000001400004004000080040F1
:1033C000000C004000040140004001400044014066
:1033D0000048014000180040001C00400020004050
:1033E00010B5846842EA032224F47F440A4322434E
:1033F000826010BD826822F070020A4342F0070129
:103400008160704710B5036A046A24F00104046205
:10341000846924F0F00444EA021423F00A020A4307
:103420008461026210BD10B5036A23F010030362C9
:103430008369046A23F4704343EA023224F0A00350
:1034400043EA01118261016210BD00000E494FF490
:10345000007008220860002048608860C1E903020B
:103460000875183940F2FF13C1E900308860C1E9DE
:1034700003020875183940F2FF23C1E90030886063
:10348000C1E9030208757047B400002010B5806BD5
:103490000021C185C184FFF7AEF910BD70B5846B02
:1034A0002068406994F83D10C0F3C0100025212920
:1034B00004D118B1E584204600F08AF820684069FC
:1034C00094F83E10C0F38010222904D118B1E5858C
:1034D000204600F056F8206C40F010002064204692
:1034E000FFF789F970BD10B50146806B096809685E
:1034F000C9052FD40021C18501680C3151E8002F86
:1035000022F4807241E80023002BF5D101681431C8
:1035100051E8002F22F0010241E80023002BF5D1F1
:103520000168143151E8002F22F0400241E80023E5
:10353000002BF5D1202180F83E10016B012909D123
:1035400001680C3151E8002F22F0100241E80023FD
:10355000002BF5D1016B012902D0FFF722FB10BD32
:10356000818DFFF70FF910BD10B5806B016B01293C
:1035700002D0FFF717FB10BD818D4908FFF702F954
:1035800010BD01680C3151E8002F22F4907241E81F
:103590000023002BF5D10168143151E8002F22F0EF
:1035A000010241E80023002BF5D1016B012909D16B
:1035B00001680C3151E8002F22F0100241E800238D
:1035C000002BF5D1202180F83E10002101637047C7
:1035D00001680C3151E8002F22F0C00241E80023BD
:1035E000002BF5D1202180F83D10704708B590F8E8
:1035F0003E10222901D0022008BD82684FF480537A
:103600009A4201D1016921B1816A9A421BD04AB123
:103610000AE00268816A5268C2F308020A80816A7D
:10362000891C08E0026972B10268526802F07F02E8
:103630000A70816A491C8162C18D491E0904090C06
:10364000C18503D019E002685268F1E70168CA68D1
:1036500022F02002CA600168CA6822F48072CA603F
:1036600001684A6922F001024A61202180F83E1077
:10367000016B012903D0FFF794FA002008BD002157
:10368000016301680C3151E8002F22F0100241E87B
:103690000023002BF5D101680A68D20602D50A681A
:1036A00049680091818DFFF76DF8E6E770B5044633
:1036B00000680169E26821F4405111430161216908
:1036C000A068E26908436169114308432168CA6838
:1036D00049F20C639A430243CA6020684169A269B7
:1036E00021F440711143416131492068884202D080
:1036F0003049884202D1FEF729FC01E0FEF716FCB2
:10370000E2690023192164253226B2F5004F626870
:1037100028D0A0FB0101930F9200FCF7A5FD014604
:10372000B0FBF5F06FF01802504301EB800006EBA0
:103730000010B0FBF5F000F0F002B1FBF5F002EB89
:103740000012B1FBF5F06FF01803584301EB800055
:1037500006EB0010B0FBF5F000F00F0021681044FC
:10376000886070BDA0FB010192185B41FCF77CFDF5
:103770000146B0FBF5F00201B1FBF5F06FF0180364
:10378000584301EB800006EBC000B0FBF5F000F001
:10379000F80002EB4002B1FBF5F0584301EB80006A
:1037A00006EBC000B0FBF5F000F00700D6E7000024
:1037B000001001400014014038B581628285002567
:1037C000134604460564222084F83E00A26B1C4880
:1037D000D063A26B1B481064A26B1B48D064A06B23
:1037E0000A4605652168A06B091DFEF735F92068BA
:1037F00001684068009084F83C50206948B1206816
:103800000C3050E8001F41F4807140E80012002A9B
:10381000F5D12068143050E8001F41F0010140E864
:103820000012002AF5D12068143050E8001F41F042
:10383000400140E80012002AF5D1002038BD000008
:10384000E7340008693500089D34000810B50348C6
:10385000FEF7D2FFBDE81040FFF7A8B9CC04002066
:10386000FEE790ED031A70EE600A80ED041AC0EDD9
:10387000030A30EEC10A90ED021A20EE011A90ED13
:10388000000A00EE801A80ED071A90ED050AD0EDCF
:10389000011A00EEA10A80ED050AD0ED060AF1EE4C
:1038A000601AB4EEE10AF1EE10FA02D2B0EE610A4B
:1038B00006E0B4EEE00AF1EE10FA01DBB0EE600AC9
:1038C00080ED050A31EE000A80ED070A90ED081A36
:1038D000F1EE410AB4EEE00AF1EE10FA02D2B0EED7
:1038E000600A06E0B4EEC10AF1EE10FA01DBB0EEB8
:1038F000410A80ED070A7047C0ED061A80ED082ADC
:1039000080EC030A704790ED031A70EE600A80EDB8
:10391000041A80ED051AC0ED030A30EEC10AD0ED9D
:10392000001A20EE210AD0ED011A00EEA10A70EE75
:10393000810AF0EE001A41EE610A90ED021A00EEE3
:10394000810A80ED060AD0ED070AB1EE601AB4EEE6
:10395000C10AF1EE10FA02D2B0EE410A06E0B4EE6E
:10396000E00AF1EE10FA01DBB0EE600A80ED060A23
:10397000D0ED080A70EE800AC0ED080A90ED090A41
:10398000B1EE401AF4EEC10AF1EE10FA02D2B0EE36
:10399000410A06E0F4EEC00AF1EE10FA01DAB0EEE8
:1039A000600A80ED080A7047C0ED071A80ED092A09
:1039B00080EC030A704703B401984100009850EA74
:1039C000C12018BF04204A0D18BF40F0010040F28A
:1039D000FF72B2EB515F08BF40F00200012808BF40
:1039E000052002B070470907090E002804DB00F12A
:1039F000E02080F80014704700F00F0000F1E02094
:103A000080F8141D7047000010B52F499FED2C1B46
:103A10002DED020B84B0059820F000408842D8BFFD
:103A20009DED040B2DDD2949884209D1049840B948
:103A30004FF00100FCF7BEFC00F0A2FC06B010BD88
:103A400005DB9DED040B00F08FFC06B010BD684651
:103A50009DED040B00F0A0F810F0030004BF9DEDF5
:103A6000021B9DED000B0CD001280ED09DED021B1A
:103A70009DED000B022817D0012000F0DDFB06B001
:103A800010BD00F0A5FA06B010BD9DED021B9DED26
:103A9000000B012000F0D0FB51EC100B00F0FCFCFF
:103AA00006B041EC100B10BD00F092FA51EC100B77
:103AB00000F0F2FC06B041EC100B10BD000000005D
:103AC0000000000000000000FB21E93F0000F07F43
:103AD00010B52F499FED2C1B2DED020B84B00598DE
:103AE00020F000408842DCBF00209DED040B32DD59
:103AF0002849884209D1049840B94FF00100FCF7E9
:103B000059FC00F03DFC06B010BD05DB9DED040B3B
:103B100000F02AFC06B010BD68469DED040B00F0D5
:103B20003BF810F0030011D0012818D09DED021BC6
:103B30009DED000B02281AD000F04AFA51EC100B50
:103B400000F0AAFC06B041EC100B10BD9DED021B6D
:103B50009DED000B012000F06FFB06B010BD9DED48
:103B6000021B9DED000B00F033FA06B010BD0120E2
:103B700000F062FB51EC100B00F08EFC06B041EC43
:103B8000100B10BD0000000000000000000000004D
:103B9000FB21E93F0000F07F2DE9F14F04462DEDB8
:103BA000020B2DED088B8AB09FEDE70B80ED020B29
:103BB000139EE74826F0004585420ADC9DED120B76
:103BC000002084ED000B0AB0BDEC088B03B0BDE80B
:103BD000F08FE0489FEDE0AB9FEDE1BBA84247DDF1
:103BE000E14F9FEDE39B9FEDE48B9DED120B53ECBA
:103BF0001A2B51EC100B002E1CDD00F0BDFF41EC28
:103C0000100BBD4208D053EC1B2B51EC100B00F0F5
:103C1000B3FFC4E900010BE053EC192B51EC100B7E
:103C200000F0AAFF53EC182B00F0A6FFC4E9000136
:103C30000120C8E700F03CFC41EC100BBD4208D06D
:103C400053EC1B2B51EC100B00F032FCC4E90001CB
:103C50000BE053EC192B51EC100B00F029FC53EC4A
:103C6000182B00F025FCC4E900014FF0FF30AAE753
:103C7000C348A84279DB9DED120B51EC100B00F00C
:103C8000B9FB41EC180B9FEDC00B53EC102B00F06F
:103C900069FE9FEDBF1B53EC112B00F009FC00F0F7
:103CA00007FE074600F033FE41EC190B53EC1A2BCC
:103CB00000F058FE53EC182B00F052FF41EC180BAB
:103CC00053EC1B2B51EC190B00F04CFEDFF8C8A293
:103CD00041EC100B4FEA15580125FA4453EC102B18
:103CE00051EC180B00F048FF032DC4E900013DD052
:103CF000C1F30A5005EB4511A8EB000011398142D0
:103D000034DA0AEB051BB0EE48AA9BED000BF0EE8F
:103D100068AA53EC102B51EC190B00F023FE41EC78
:103D20001B0B51EC1A0B53EC1B2B00F025FF41EC45
:103D3000180B51EC1A0B53EC182B00F01DFF53EC31
:103D40001B2B00F019FF9BED020B41EC1A0B53ECFF
:103D5000102B51EC190B00F005FE53EC1A2B00F060
:103D60000BFF41EC100B6D1CB8E70EE0002EA8BF56
:103D70003846BFF628AF94ED000B51EC100B00F065
:103D80008BFBC4E9000178421DE7C6F3130040F441
:103D9000801EC6F30A50A0F2F530471100F01F054F
:103DA000C5F12000DDF848B008900020069007908B
:103DB0000520EC467949002D07EB0002794408BF45
:103DC00051F8221009D051F8223001EB8201AB40AA
:103DD0004A68089922FA01F11943A1FB0E26A1FBBA
:103DE0000B131A449A4234BF0123002303EB060845
:103DF0000CEB8003D3E901A60E448E4234BF0121AF
:103E0000002192448A4411B1924502D903E09245BF
:103E100001D2012100E00021C3E901A641444CF890
:103E20002010011EA0F10100C4DC029800F1005036
:103E3000850F0298DDE903678000DDF8148000F04B
:103E400066FD41EC1A0B304600F078FD9FED541BE7
:103E500053EC112B00F086FD41EC1B0B384600F0B3
:103E60006DFD9FED511B53EC112B00F07BFD41ECE0
:103E7000180B404600F062FD9FED4D1B53EC112BDB
:103E800000F070FD41EC190B51EC180B53EC192BA1
:103E900000F00EFB53EC1B2B00F00AFB53EC1A2B2B
:103EA00000F006FBCDE90801002008909DED080B0D
:103EB00053EC1A2B51EC100B00F05EFE53EC1B2B55
:103EC00000F05AFE53EC182B00F056FE53EC192B61
:103ED00000F046FE9FED381B53EC112B00F042FD25
:103EE0009FED370B41EC180B53EC102B9DED080B9D
:103EF00051EC100B00F036FD53EC182B00F0D8FA03
:103F00009FED310B41EC180B53EC102B9DED080B82
:103F100051EC100B00F026FD53EC182B00F0C8FA02
:103F200041EC100B139810F0004F06D06D4251EC8D
:103F3000100B00F0B1FA41EC100B284684ED000B99
:103F400041E600000000000000000000000000004A
:103F5000FB21E93F7CD9024000004054FB21F93F9E
:103F60003163621A61B4D03DFB21F93F00000000CB
:103F70000000601A61B4D03D7370032E8A19A33B10
:103F8000FB2139410000000083C8C96D305FE43F68
:103F9000000000000000E03FCA1000001810000000
:103FA000000000000000103E000000000000103C77
:103FB000000000000000103A182D4454FB21F93D88
:103FC0003326A611460B113C00000054FB21F93D9D
:103FD00010B52DED040B2DED088B82B0B0EE419A9B
:103FE000F0EE619A0B9820F000449FED4BABB4F1DA
:103FF000795F11DA9DED0A0B51EC100B00F058FCC3
:10400000002801BFB0EE4A0AF0EE6A0A02B0BDEC29
:10401000088B04BF04B010BD9DED0A0B53EC102BB0
:1040200051EC100B00F09EFC41EC180B3C480621B3
:10403000B0EE480AF0EE680A784400F081F853ECDC
:10404000182B51EC100B00F08DFC9DED0A0B41EC90
:104050001B0B53EC192B51EC100B00F083FC41ECC3
:10406000190B53EC1B2B51EC180B00F07BFC53ECA1
:10407000192B00F081FD9FED2C0B41EC190B53EC3B
:10408000102B51EC180B00F06DFC41EC100B284884
:10409000844210DA53EC192B51EC100B00F06CFD3C
:1040A00053EC1A2B00F05CFD41EC100B02B0BDECA0
:1040B000088B04B010BD1F48A042BCBF9FED1E1B63
:1040C0008DED001B06DBA4F5001001900020009090
:1040D0009DED001B51EC100B53EC112B00F04CFD2F
:1040E0009DED000B41EC180B53EC102B51EC1A0B0F
:1040F00000F042FD41EC1A0B53EC192B51EC180B5C
:1041000000F03AFD53EC1A2B00F02AFD41EC100BA5
:10411000CCE7000000000000000000000000F03FBD
:104120003C0D000000000000000000000000E03F27
:104130003333D33F0000E93F000000000000D23FCE
:1041400070B504462DED028B4D1E00EBC500B0EEA0
:10415000408AF0EE608A90ED000B35F0060017D033
:1041600053EC182B51EC100B00F0FCFB41EC100B46
:104170006D1E04EBC50090ED001B51EC100B53ECD1
:10418000112B00F095F941EC100B35F00600E7D14A
:10419000022D36D0042D1CD0062D1CBFBDEC028B89
:1041A00070BD53EC182B51EC100B00F0DBFB94EDC1
:1041B0000A1B53EC112B00F07BF953EC182B00F089
:1041C000D1FB94ED081B53EC112B00F071F941EC7D
:1041D000100B53EC182B51EC100B00F0C3FB94EDBB
:1041E000061B53EC112B00F063F953EC182B00F075
:1041F000B9FB94ED040B53EC102B00F059F941EC92
:10420000100B53EC182B51EC100B00F0ABFB94EDA2
:10421000021B53EC112B00F04BF953EC182B00F060
:10422000A1FB94ED001B53EC112B00F041F9BDEC08
:10423000028B41EC100B70BD31B504462DED040B23
:104240002DED0A8BB0EE41BAF0EE61BA0B989DED00
:104250000A0B20F00040B0F1795F0DDA51EC100B41
:10426000FFF7A9FB042808BF00F09AF89DED0A0BA0
:10427000BDEC0A8B05B030BD53EC102B51EC100B8C
:1042800000F070FB41EC180B9DED0A0B53EC182B62
:1042900051EC100B00F066FB41EC190B2C48B0EE12
:1042A000480AF0EE680A05217844FFF749FF9FEDC0
:1042B0002ACBB0EE40AAF0EE60AA9CB353EC1C2BC4
:1042C00051EC190B00F04EFB41EC1C0B53EC1A2B7C
:1042D00051EC190B00F046FB9FED210B41EC190B43
:1042E00053EC102B51EC1B0B00F03CFB53EC192B47
:1042F00000F042FC53EC182B00F034FB53EC1B2B6A
:1043000000F03AFC53EC1C2B00F036FC9DED0A1B30
:1043100053EC112B00F024FCBDEC0A8B05B041ECF2
:10432000100B30BDFFE753EC1A2B51EC180B00F0CB
:1043300019FB53EC1C2B00F0BBF853EC192B00F0CD
:1043400011FB9DED0A1B53EC112B00F0B1F8E3E7D4
:10435000C40B000000000000495555555555C5BF18
:10436000000000000000E03F10B553EC102B51ECB2
:10437000100B00F09DF841EC100B10BD0000000088
:104380009FED050B10B553EC102B51EC100B00F00A
:1043900037F941EC100B10BD0000000000000000D8
:1043A0009FED050B10B553EC102B51EC100B00F0EA
:1043B000D9FA41EC100B10BD000000000000001005
:1043C00010B50B4CA07A012801D100F04DF8A07A6D
:1043D000032803D1FCF72AFBFCF75CF9A07A02283A
:1043E00005D1FCF723FBBDE81040FCF781B910BDF7
:1043F000CA01002082B0CDE9000121F00040019007
:104400009DED000B02B051EC100B7047FDF762FC04
:10441000FEF724FEFEF7C6FCFEF7AEFCFEF764FCDA
:10442000FEF786FCFEF74CFDFEF7E2FCFEF714FDFE
:104430000948FDF749F90948FDF746F9FEF7DAFDA5
:104440000748FEF739F80748FEF736F8FEF7B8FDDB
:10445000FBF7F6FFFEE70000EC0300201404002049
:104460003C0400208404002030B5094843880288B9
:10447000018908489C180D1B85819D1A0D44D21A8C
:104480000A44C58302862144A0F8421030BD0000D2
:10449000CA0100200401002081F00041704780F033
:1044A0000040704721F00041704720F00040704705
:1044B00010B591EA030F48BF83F0004300F1648315
:1044C000841A71EB030C05D2121943EB0C03001B89
:1044D00061EB0C01DFF824E14FEA1154A4EB135C0B
:1044E0001EEA430F18BF9EEA445F73D023EA0E030F
:1044F000DCF1200E21EA045143F4801332D322FA76
:104500000CFE10EB0E0023FA0CFE41EB0E01CCF179
:10451000200E03FA0EFE10EB0E0051F10001B1F572
:10452000801FCCF1200E32D201EB045112FA0EF2B0
:10453000BDE8104058BF7047401C38BF5FEA4202D8
:1045400018BF7047002814BF20F0010041F100019E
:104550004FEA410313F5001F38BF7047A1F1C04176
:1045600000F0F8BA012A43EB0302ACF1200CDCF1B5
:104570001F0E32BF4FF0000E23FA0CF310EB0300B6
:1045800041EB0451B4EB115FD0D0A1EB045101F524
:10459000801149085FEA300001EB04510ED350F15D
:1045A000000038BF12FA0EFE08D1BDE81040C9E77E
:1045B000401C38BF5FEA4202CAD1C3E7BDE81040E1
:1045C0004FEA410313F5001F38BF7047A1F1C04106
:1045D00000F0C0BA9EEA445F08D011EA5E0FBDE861
:1045E000104004BF01F0004100207047BDE81040BA
:1045F00070B500F061FA00BF64FBBE3E0000E0FF52
:104600002DE9C04130B4DFF8A0C23CEA111418BF54
:104610003CEA131400F0EC8081EA03051CEA111453
:1046200044EAD57418BF1CEA131500F0C780A4EB48
:1046300005044FF0004545EAC12145EAC32341EA9C
:10464000505143EA525304F17F74994204F5003407
:104650004FEAC0204FEAC22208BF904200F09C807F
:104660004FEA13650FF24016765D4FEA134506FBDD
:1046700005F7C7F1807706FB07F74FEAD737A7FBA7
:1046800003687642C8F58038A7FB06CE38BFA8F18C
:10469000010807FB08E64FF0000EA6FB028CE6FBC4
:1046A00003CEDCF1000CCEF1004E38BFAEF1010EAE
:1046B000A6FB0C584FF000074FF00005E6FB0E87F5
:1046C000A1FB08C6A0FB07CE16EB0E0645F10005C0
:1046D000E1FB076515F1E04E7EBFA4F580345FEA8B
:1046E00046066D4116F1800745F100054FEA172790
:1046F0004FEA066647EA0567A6F1DE46B6F1805F37
:104700004FEA15251FD9384624F0010C05EBC4717A
:10471000BCF1FE6F01EB0C1102D8F0BCBDE80081CA
:1047200024425CBF01F5801E9EEAC47F02D4F0BC27
:10473000BDE80081244238D4F0BCA1F1C041BDE8FD
:10474000004100F007BA4FEAD22242EA43524FEA50
:10475000D323A7FB02864FEAD02040EA415007FB53
:1047600003661EEA0E0F4FEAD12105FB026658BF11
:10477000A6EB0056B6EB00564FEA520E4EEAC37E49
:1047800018EB0E0E56EB530EBDD518EB02085E412A
:104790007F1C55F10005B6E74FF480154FF0000778
:1047A0004FF000064FF00008ADE7F0BC4FF00000FE
:1047B00001F1C04101F00041BDE8008111EA0C1F88
:1047C0000CEA131500D00CE013EA0C1F00F0258052
:1047D0004FF00000F0BC81EA030101F00041BDE8A8
:1047E0000081F0BCBDE8004181EA030100F0B2B9EC
:1047F000F0BCBDE8004170B500F05EF9097EFC3EFA
:1048000000F007B881EA03014FF0000001F0004119
:10481000704781EA030100F09DB9F0BCBDE800419A
:104820004FF0000021497047FFFDFBF9F7F5F4F266
:10483000F0EEEDEBE9E8E6E4E3E1E0DEDDDBDAD83B
:10484000D7D5D4D3D1D0CFCDCCCBCAC8C7C6C5C499
:10485000C2C1C0BFBEBDBCBBBAB9B8B7B6B5B4B3B0
:10486000B2B1B0AFAEADACABAAA9A8A8A7A6A5A49B
:10487000A3A3A2A1A09F9F9E9D9C9C9B9A9999985F
:104880009797969595949393929191908F8F8E8E02
:104890008D8C8C8B8B8A898988888787868585848F
:1048A00084838382828181800000FF070000F87F7B
:1048B0004FEA41034FEA5353A3F58063D3F11E033C
:1048C000C8BFD3F1210C0CDD4FF0004242EAC122F7
:1048D00042EA505232FA03FC8CEAE17CACEBE17024
:1048E0007047102BC4BF0020704703F5787CBCF1E3
:1048F000FF3F04D06FF0004282EA2100704770B59C
:1049000000F0DAF84992248000207047F2E710F0B6
:10491000004248BF4042B0FA80F310FA03F10AD0D7
:10492000C3F11D0303F580634FEA415002EB0352CC
:1049300002EBD12170474FF000007047B0FA80F3CE
:1049400010FA03F10AD0C3F11D0303F580634FEAA7
:1049500041504FEA035202EBD12170474FF0000063
:1049600070470000DFF848C170B51CEA111E1EBF79
:104970001CEA13159EEA0C0F95EA0C0F00F06F80ED
:1049800081EA030423EA4C134EEAD47E21EA4C1157
:1049900041F4801143F48013AE44A1FB024CA0FB10
:1049A0000365AEF17F7E361955EB0C05A1FB034C78
:1049B0004CF10003A0FB021C16EB0C06654153F101
:1049C0000003094218BF46F0010613F4007F0BD123
:1049D0004FEA03314FEA0530340341EA155140EA0A
:1049E00016506FF003020AE04FEAC3214FEAC520D8
:1049F000F40241EA555140EA56506FF0020202EBD0
:104A00002E4201EB025585EACE710AD05FEA440CD2
:104A100018BF24F0004450F1000041F1000120EAE9
:104A2000D47040F2FE7C624500D270BDA84214BF33
:104A30004FF080444FF04044002E08BF0024BEF1E8
:104A4000806FA8BFA1F1C041BDE8704080F28280B4
:104A50004FF0000001F1C04101F0004170479EEAB3
:104A60000C0F0CEA131518BF95EA0C0F06D04FF087
:104A7000000081EA030E0EF0004170BD00F01CF84A
:104A80008900013E00F007B800F009B84FEA430C76
:104A90005FEA5C5C08D081EA030100F05BB84FEA92
:104AA000410C5FEA5C5CF6D14FF0000001497047B1
:104AB0000000FF070000F87F0EF1020E2EF0030E3B
:104AC0005EF8046B364205D4012A43EB030515F565
:104AD000001F12D8012841EB010C1CF5001F0CD857
:104AE0000ED14FEAD17C15F5001F0CEB4C0C0CF1EC
:104AF000020C08BF4CEBD37C04E04FF0080C01E043
:104B00004FEAD37C0CEB4C0526FA05F606F00706B7
:104B1000B6F1040C06D20EEB860CBDE870404CF0EA
:104B2000010C6047DFE80CF0090B02024FF0004176
:104B30004FF00000A1F5002170BD19461046012874
:104B400051EB010418BFD4F5001484BF002001F01C
:104B5000004170BD0808A0F500114FEA310170470F
:104B600091EA030F10B581F000413FF5A9AC83F045
:104B7000004300F009B8000010B591EA030F48BFE8
:104B800083F000433FF59CAC841A71EB030C07D211
:104B900012198CF0004C43EB0C03001B61EB0C0171
:104BA000DFF8A4E14FEA1154A4EB135C1EEA430FB3
:104BB00018BF9EEA445F00F0B08023EA6E035242C1
:104BC00021EA0451C3EB6E0338BF5B1EDCF1200EFB
:104BD00025D322FA0CFE10EB0E0043FA0CFE41EB3B
:104BE0000E01CCF1200E03FA0EFE10EB0E0051F177
:104BF0000001CCF1200E29D412FA0EF201EB04517F
:104C0000BDE8104058BF7047401C1CBFB2F1004FB8
:104C1000704700280CBF491C20F00100704712EBC0
:104C2000020E43EB030218BF4FF0010E4EEA4202A0
:104C3000ACF1200CDCF11E0E54D943FA0CFE10EB43
:104C40000E0051F1FF31CCF11E0ED5D50EF1010E43
:104C500012FA0EFE404141EB010101EB445C5FEAB8
:104C60005C5C10D910EBDE7001EB045138BFBEF173
:104C7000004FBDE8104018BF704700280CBF491C0A
:104C800020F00100704730D24FEAD42C11F500110A
:104C900024F400641BD0B1FA81F20B3AA41AA41ECA
:104CA000D2F12003914030FA03F31943904001EB15
:104CB000CC71002C01EB0451BDE81040A8BF704737
:104CC00001F1C0414FF0000001F000417047B0FA1F
:104CD00080F310FA03F100D110BDE41A173C480527
:104CE000C90AE4E701EB045110BD491001EB04517E
:104CF000BDE810404FEA300002E04FF0000170477D
:104D00004A0008BF0042F8D0B2F5001F28BF704724
:104D100001F000414FF0000070479EEA445F07D069
:104D200011EA5E0FBDE8104004BF0021002070476B
:104D3000BDE8104070B5FFF7BFFE00BF40DFF63E94
:104D400083F00041104670470000E0FF4FF04070D4
:104D5000E1EE100A7047000610160006101600005B
:104D6000000000000000010203040607080900001B
:104D700000000102030400004C5555555555A53F50
:104D80007751C1166CC156BF9015CB19A001FA3EE0
:104D9000AD529C804F7E92BEC4B1B4BD9EEE213E0A
:104DA000D43888BEE9FAA8BD00004054FB21F93F81
:104DB0003163621A61B4D03D0000601A61B4D03D25
:104DC0007370032E8A19A33B0000002E8A19A33B9F
:104DD000C14920259A837B390000000000000000B3
:104DE0006E83F9A22915444ED15727FCC0DD34F556
:104DF000999562DB4190433CAB6351FE61C5BBDEDC
:104E00003A6E24B7E0D24D42EA2E49061C92D109EF
:104E10001CEB1DFE3EA729B1F53582E88444BB2E6C
:104E200026709CE9417E5FB439D69139F4395383B9
:104E30008B5F849C3B28F9BDFF97F81F0F9805DE18
:104E40008B112FEF1F6D0A5ACF7E366DB709CB2716
:104E5000663F464F2DEA5F9EC7BA27757BF1E5EBAB
:104E6000F739073DEA92528AB15FFB6B085D8D1FEF
:104E7000A6F810111111813FD561C119A0012ABFF7
:104E80007DFEB157E31DC73EEB9C2B8AE6E55ABE7B
:104E90007CD5CF5A3AD9E53DB84E00080000002035
:104EA00084000000C40100083C4F0008840000207A
:104EB0004C0B0000E00100080000000000000000B2
:104EC00000000000000000000000000000000000E2
:104ED00000000000000000000000000000000000D2
:104EE00000000000000000000000000000000000C2
:104EF00000000000000000000000000000000000B2
:104F000000000000000000000000000000000000A1
:104F10000000000000000000000000000000000091
:104F20000000000000000000000000000100000080
:0C4F300010000000000000000024F4004D
:040000050800018965
:00000001FF
